S00D000045783030392E73726563C1
S11300000C9434000C9446000C9446000C94460066
S11300100C9446000C9446000C9446000C94460044
S11300200C9446000C9446000C9446000C94460034
S11300300C9446000C9446000C9446000C94460024
S11300400C9478000C9446000C9446000C944600E2
S11300500C9446000C9446000C9446000C94460004
S11300600C9446000C94460011241FBECFEFD8E038
S1130070DEBFCDBF21E0A0E0B1E001C01D92A230FF
S1130080B207E1F70E9463000C948F000C94000007
S11300902D9A089585B18F6D85B90895289A08958C
S11300A016BCEEE6F0E080818160808384B58C7FAD
S11300B084BD85B5877F85BD85B5846085BD85B5DF
S11300C08C6F85BD089584B1816284B90E944E000D
S11300D00E944A000E9450007894809100019091FF
S11300E0010110920101109200010E944800F5CF15
S11300F01F920F920FB60F9211248F939F938091AA
S113010000019091010101969093010180930001F7
S11301109F918F910F900FBE0F901F901895F89498
S1050120FFCF0B
S9030000FC
