S00D000045783030362E73726563C4
S11300000C9434000C943E000C943E000C943E007E
S11300100C943E000C943E000C943E000C943E0064
S11300200C943E000C943E000C943E000C943E0054
S11300300C943E000C943E000C943E000C943E0044
S11300400C943E000C943E000C943E000C943E0034
S11300500C943E000C943E000C943E000C943E0024
S11300600C943E000C943E0011241FBECFEFD8E048
S1130070DEBFCDBF0E9440000C9454000C940000DD
S1130080259A579856984E9B04C04F9902C02D9AB2
S113009001C02D982FEF89E698E1215080409040CF
S10F00A0E1F700C00000EFCFF894FFCFA0
S9030000FC
