S01400004C43445F45786572636973652E73726563A6
S11300000C9434000C9446000C9446000C94460066
S11300100C9446000C9446000C9446000C94460044
S11300200C9446000C9446000C9446000C94460034
S11300300C9446000C9446000C9446000C94460024
S11300400C9446000C9446000C944D020C9446000B
S11300500C9446000C9446000C9446000C94460004
S11300600C9446000C94460011241FBECFEFD8E038
S1130070DEBFCDBF21E0A0E0B1E001C01D92A733F7
S1130080B207E1F70E9456030C9481030C9400001C
S1130090672B09F073C08A30910511F428980895EC
S11300A08B30910511F4299808958C30910511F441
S11300B02A9808958D30910511F42B9808958E3067
S11300C0910511F42C9808958F30910511F42D9811
S11300D008958031910511F42E9808958131910588
S11300E011F42F9808958431910511F440980895DE
S11300F08531910511F4419808958631910511F4E3
S1130100429808958731910511F4439808958831F0
S1130110910511F4449808958931910511F4459895
S113012008958A31910511F4469808958E31910508
S113013011F4589808958F31910511F45998089540
S11301408032910511F45A9808958132910511F481
S11301505B9808958232910511F45C980895833276
S1130160910511F45D9808958432910511F45E9817
S11301700895859709F073C05F9808958A309105B2
S113018011F4289A08958B30910511F4299A089551
S11301908C30910511F42A9A08958D30910511F44B
S11301A02B9A08958E30910511F42C9A08958F306E
S11301B0910511F42D9A08958031910511F42E9A28
S11301C008958131910511F42F9A08958431910590
S11301D011F4409A08958531910511F4419A0895D6
S11301E08631910511F4429A08958731910511F4ED
S11301F0439A08958831910511F4449A08958931F8
S1130200910511F4459A08958A31910511F4469A9D
S113021008958E31910511F4589A08958F319105FE
S113022011F4599A08958032910511F45A9A089557
S11302308132910511F45B9A08958232910511F48B
S11302405C9A08958332910511F45D9A089584327D
S1130250910511F45E9A0895859709F45F9A0895BB
S1130260CF93C82F80FF07C061E070E082E290E086
S11302700E94480006C060E070E082E290E00E94C4
S11302804800C1FF07C061E070E083E290E00E9493
S1130290480006C060E070E083E290E00E944800FD
S11302A0C2FF07C061E070E084E290E00E94480071
S11302B006C060E070E084E290E00E944800C3FF62
S11302C007C061E070E085E290E00E94480006C04B
S11302D060E070E085E290E00E944800CF910895CC
S11302E0CF93C82F60E070E08DE090E00E9448005A
S11302F08C2F0E94300161E070E08CE090E00E945D
S113030048008FE99FE00197F1F700C0000060E02A
S113031070E08CE090E00E9448008FE99FE0019734
S1130320F1F700C00000CF91089580E00E947001B1
S113033081E00E9470010895CF93C62F813059F453
S113034080E8860F82958F700E9470018C2F8F70C9
S11303500E9470010CC0823051F480EC860F8295AB
S11303608F700E9470018C2F8F700E947001CF914A
S1130370089580E00E9430012FEF89EF90E0215032
S113038080409040E1F700C0000083E00E947001CB
S11303908FE19EE40197F1F700C0000083E00E9422
S11303A070018FED9BEA0197F1F700C0000083E034
S11303B00E94700182E00E94700182E00E9470013C
S11303C088E00E94700180E00E9470018CE00E942D
S11303D0700180E00E94700186E00E94700108951F
S11303E0CF93C82F61E070E08DE090E00E94480058
S11303F08C2F82958F700E94300161E070E08CE058
S113040090E00E9448008FE99FE00197F1F700C057
S1130410000060E070E08CE090E00E9448008FE90A
S11304209FE00197F1F700C000008C2F8F700E94AD
S1130430300161E070E08CE090E00E9448008FE9B8
S11304409FE00197F1F700C0000060E070E08CE0ED
S113045090E00E9448008FE99FE00197F1F700C007
S11304600000CF91089584B18C6084B980EF8AB97B
S11304700895E0ECF0E0908195FFFDCF8093C600F5
S113048008959093C5008093C40088E98093C100C7
S113049086E08093C200789408951F920F920FB65D
S11304A00F9211248F9381E080930C018091C600F8
S11304B080930D018F910F900FBE0F901F90189590
S11304C020910A0130910B01232B09F0EEC08432F4
S11304D069F42091080130910901232B39F521E0B9
S11304E030E0309309012093080120C0873471F46F
S11304F020910801309109012130310539F522E0BC
S113050030E0309309012093080120C0803571F454
S113051020910801309109012230310539F523E099
S113052030E0309309012093080120C0823571F432
S113053020910801309109012330310539F524E077
S113054030E0309309012093080120C08D3471F408
S113055020910801309109012430310591F525E0FD
S113056030E030930901209308012BC0833471F4E7
S113057020910801309109012530310511F526E05B
S113058030E030930901209308011BC02091080139
S11305903091090126303105A1F48C3291F4209177
S11305A00001309101012F5F3F4F309301012093EF
S11305B0000110920301109202012330310521F54C
S11305C00895209100013091010123303105E1F4B7
S11305D020910201309103012130310509F065C0F9
S11305E02091060130910701A9014F5F5F4F50939D
S11305F0070140930601F901ED5DFE4F80831092DF
S1130600030110920201089525303105E1F420918F
S11306100201309103012130310509F044C02091D9
S1130620040130910501A9014F5F5F4F509305010B
S113063040930401F901E15FFE4F808310920301AE
S11306401092020130C08A3281F52530310568F1FB
S11306508091020190910301019739F5E09106011F
S1130660F0910701ED5DFE4F1082E0910401F091DD
S11306700501E15FFE4F10821092070110920601FE
S113068010920501109204011092030110920201CC
S113069081E090E090930B0180930A011092010194
S11306A01092000108958A3299F208950E9433024B
S11306B087E690E00E9441020E94B9010E949501E0
S11306C061E081E00E949C01C3E2D1E080910C01D1
S11306D08823E1F310920C0180910D0190E00E94B7
S11306E060028C2F0E94F0018C2F0E9439022FEFA0
S11306F083ED90E3215080409040E1F700C000007A
S1090700E5CFF894FFCFE1
S9030000FC
