S00D000045783030382E73726563C2
S11300000C9434000C9446000C9446000C94460066
S11300100C9446000C9446000C9446000C94460044
S11300200C9446000C9446000C9446000C94460034
S11300300C9446000C9446000C9446000C94460024
S11300400C9446000C9446000C9446000C94460014
S11300500C9446000C9466010C9446000C944600E3
S11300600C9446000C94460011241FBECFEFD8E038
S1130070DEBFCDBF21E0A0E0B1E001C01D92AA30F7
S1130080B207E1F70E9476000C9491010C940000F1
S11300902D9A08952D980895259A0895EAE7F0E099
S11300A0808180688083808187608083ACE7B0E052
S11300B08C91807F8C938081886080837894808108
S11300C08064808308959093C5008093C40088E978
S11300D08093C10086E08093C2000895E0ECF0E0D4
S11300E0908195FFFDCF8093C60008950E944C0037
S11300F00E944A0087E690E00E9463000E944E003E
S1130100CAE7D0E080910801909109010197D1F7E5
S113011010920901109208010E944A002FEF39E65B
S113012088E1215030408040E1F700C000008EE3B8
S11301300E946E0040910601509107019A01ADECB6
S1130140BCEC0E9482019695879596958795969525
S113015087959C01220F331F880F991F880F991FC1
S1130160880F991F820F931F481B590B4093050159
S113017020910601309107010E948201AC0156953D
S1130180479556954795569547959A010E94820141
S11301909695879596958795969587959C01220FB8
S11301A0331F880F991F880F991F880F991F820F7B
S11301B0931F481B590B4093040120910601309171
S11301C007013695279536952795ABE7B4E10E944C
S11301D08201AC01569547959A01ADECBCEC0E94A6
S11301E082019695879596958795969587959C0116
S11301F0220F331F880F991F880F991F880F991F8B
S1130200820F931F481B590B409303012091060151
S1130210309107013695279536952795369527957C
S1130220A5ECB0E20E948201AC01529542954F7058
S113023045275F7045279A01ADECBCEC0E94820112
S11302409695879596958795969587959C01220F07
S1130250331F880F991F880F991F880F991F820FCA
S1130260931F9A01281B390BC90120930201805D59
S11302700E946E0080910301805D0E946E00809157
S11302800401805D0E946E0080910501805D0E94E2
S11302906E008AE00E946E008DE00E946E008091E4
S11302A006019091070190930101809300010E943F
S11302B048003FEF89E698E1315080409040E1F7F3
S11302C000C000008881806488831CCF1F920F9235
S11302D00FB60F9211248F939F9380917800909181
S11302E07900909307018093060181E090E0909358
S11302F00901809308019F918F910F900FBE0F9079
S11303001F901895A29FB001B39FC001A39F700DC9
S1130310811D1124911DB29F700D811D1124911D09
S10903200895F894FFCFDC
S9030000FC
