:100000000C9434000C943E000C943E000C943E0082
:100010000C943E000C943E000C943E000C943E0068
:100020000C943E000C943E000C943E000C943E0058
:100030000C943E000C943E000C943E000C943E0048
:100040000C943E000C943E000C943E000C943E0038
:100050000C943E000C943E000C943E000C943E0028
:100060000C943E000C943E0011241FBECFEFD8E04C
:10007000DEBFCDBF0E944E000C9480000C940000A7
:10008000E0ECF0E0908195FFFDCF8093C6000895ED
:100090002D9A08952D980895259A08950E944C0050
:1000A0000E944A000E9448000E94480088E40E9482
:1000B000400085E40E9440008CE40E9440008CE4F3
:1000C0000E9440008FE40E9440008AE00E944000AD
:1000D0008DE00E9440002FEF84E39CE0215080409F
:1000E0009040E1F700C000000E944A002FEF84E337
:1000F0009CE0215080409040E1F700C00000D4CF48
:04010000F894FFCFA1
:00000001FF
