S0170000457830313041737369676E6D656E742E73726563A6
S11300000C9434000C9446000C9446000C94460066
S11300100C9446000C9446000C9446000C94460044
S11300200C9446000C9446000C9446000C94720107
S11300300C9446000C9446000C9446000C94460024
S11300400C9446000C9446000C9446000C94460014
S11300500C9446000C9446000C9446000C94460004
S11300600C9446000C94460011241FBECFEFD8E038
S1130070DEBFCDBF21E0A0E0B1E001C01D92A230FF
S1130080B207E1F70E9458010C94D7010C940000C8
S113009084B18C6084B98FEF8AB908952A9A8FE964
S11300A09FE00197F1F700C000002A988FE99FE0D4
S11300B00197F1F700C0000008958BB92B980E94B6
S11300C04E001BB808958BB92B9A0E944E001BB8A2
S11300D00895CF92DF92EF92FF920F931F93CF93E5
S11300E0DF93AC01CC24C394D12C80369A4E10F407
S11300F0C12CD12C9A01369527953695279536959E
S11301002795A5ECB0E20E94B401929582958F7078
S113011089279F70892764EC860160039001619FA1
S1130120300D11247C01E20EF31E88E19CEFC89E81
S1130130B001C99E700DD89E700D1124ECE3E69FAA
S11301409001E79F300D1124420F531FE89E800158
S1130150E99E100DF89E100D1124040F151F81E067
S11301600E945D0087E80E945D00CAE0D0E0C601FD
S1130170BE010E94A001D82ECB01BE010E94A001A5
S1130180805D0E94630080E38D0D0E9463008AE31A
S11301900E946300C701BE010E94A001F82ECB019A
S11301A0BE010E94A001805D0E94630080E38F0D68
S11301B00E9463008AE30E946300C80164E670E061
S11301C00E94A001CB01BE010E94A001805D0E949B
S11301D06300C801BE010E94A001182FCB01BE011B
S11301E00E94A001805D0E94630080E3810F0E9451
S11301F06300DF91CF911F910F91FF90EF90DF90FB
S1130200CF9008952B982A982FEF89EF90E02150F2
S113021080409040E1F700C0000080E30E945D0050
S11302208FE19EE40197F1F700C0000080E30E9493
S11302305D008FE99FE00197F1F700C0000080E3C3
S11302400E945D008FE39CE90197F1F700C0000074
S113025088E30E945D008CE00E945D0081E00E94C2
S11302605D0086E00E945D00089510928500109262
S11302708400EFE6F0E0808182608083E0E8F0E0D3
S113028080818C7F8083E1E8F0E0808188608083D6
S113029080818F7E808380818560808380818C7F54
S11302A0808389E09DE3909389008093880008957A
S11302B00E9448000E94020181E80E945D0083E5DB
S11302C00E94630084E50E94630081E40E9463004D
S11302D082E50E94630084E50E9463000E94350168
S11302E07894FFCF1F920F920FB60F9211242F9381
S11302F03F934F935F936F937F938F939F93AF93AA
S1130300BF93EF93FF938091000190910101865078
S11303109F4F90930101809300010E946900FF9117
S1130320EF91BF91AF919F918F917F916F915F9169
S11303304F913F912F910F900FBE0F901F901895E2
S113034097FB072E16F4009407D077FD09D00E947E
S1130350C30107FC05D03EF4909581959F4F089505
S1130360709561957F4F0895A29FB001B39FC0011E
S1130370A39F700D811D1124911DB29F700D811DCD
S11303801124911D0895AA1BBB1B51E107C0AA1F8C
S1130390BB1FA617B70710F0A61BB70B881F991F22
S11303A05A95A9F780959095BC01CD010895F894CC
S10503B0FFCF79
S9030000FC
